:070EDA007590E075B0F322F2
:100D9F00E58954F0FFEF4401F589900087E4F09066
:100DAF000087E0FFEFC394C85015758CEE758A006D
:0F0DBF00D28C308DFDC28D900087E004F080E073
:010DCE002202
:0E0EA700758CFF758AD2D28C308DFDC28D22E3
:0E0EB500758CF8758ACDD28C308DFDC28D22E1
:10093200120EDA120D9FC2B3D2B2C290C291D292FB
:10094200C293C2B2120EA7C2B3D2B2C290C291D2A5
:1009520092C293C2B200C2B3D2B2D290C291C29238
:10096200C293C2B2120EA7C2B3D2B2C290C291C295
:1009720092C293C2B200C2B3D2B2D290D291D292F8
:10098200D293C2B2120EA7C2B3D2B2C290C291C265
:1009920092C293C2B200C2B3D2B2C290C291C29208
:1009A200D293C2B2120EB5120EB5C2B3D2B2C29077
:1009B200C291C292C293C2B200C2B3D2B2C290D2A8
:1009C20091D292C293C2B2120EA7120EB5D2942243
:100E2400C2B3D2B2C290C291C292C293C2B200C241
:100E3400B3D2B2C290C291C292D293C2B2120EB5D0
:040E4400120EB522B3
:0A0BDD00900063EFF0900064EDF06B
:100BE700900064E0FF7401A807088002C333D8FCB3
:100BF700FF900065EFF0900065E0FF900063E0FE76
:100C0700EE5FFF900066EFF0900064E0FF900066F3
:100C1700E0FEEEA807088002C313D8FCFFEF24FF0D
:040C27009200A20095
:010C2B0022A6
:100A5E00900088EFF0D2B3D2B2900088E0FF7D070D
:100A6E00120BDD9290900088E0FF7D06120BDD9256
:100A7E0091900088E0FF7D05120BDD929290008828
:100A8E00E0FF7D04120BDD9293C2B200D2B2900051
:100A9E0088E0FF7D03120BDD9290900088E0FF7DD1
:100AAE0002120BDD9291900088E0FF7D01120BDDAA
:100ABE009292900088E0FF7D00120BDD9293C2B2FD
:040ACE00120EA7223B
:0B0B8C00900067EBF0A3EAF0A3E9F093
:100B970090006AE4F0900067E0FBA3E0FAA3E0F9B5
:100BA70090006AE0FF8F827583001207B8FFEF603D
:100BB70024900067E0FBA3E0FAA3E0F990006AE065
:100BC700FF8F827583001207B8FF120A5E90006AD2
:050BD700E004F080C005
:010BDC0022F6
:100E4800C2B3D2B2D290D291C292C293C2B200D2ED
:100E5800B2C290C291C292C293C2B2120EB5120E21
:020E6800B522B1
:070EE1007580FF75A00022DF
:100C7A0090006BEBF0A3EAF0A3E9F090006EEDF0C0
:100C8A0090006EE0FF90006BE0FBA3E0FAA3E0F9AE
:100C9A00EF1207E590006EE0FF90006BE0FBA3E027
:0F0CAA00FAA3E0F9758201758300EF1207F722B4
:100DCF0090007BEBF0A3EAF0A3E9F090007BE0FB4F
:100DDF00A3E0FAA3E0F912079FFF90007BE0FBA3CB
:100DEF00E0FAA3E0F9758201758300EF1207F7228D
:100DFF0090006FEBF0A3EAF0A3E9F0900072EDF032
:100E0F00900072E0FF90006FE0FBA3E0FAA3E0F91F
:050E1F00EF1207E522BF
:100CB90090007EEBF0A3EAF0A3E9F090007EE0FB60
:100CC900A3E0FAA3E0F912079FFFEFB4011C90001B
:100CD9007EE0FBA3E0FAA3E0F975820175830012B7
:0D0CE90007B8FFEF70047F0180027F00223A
:0E0EC300534C4F424F44414E20554C415A0073
:100AD20041002200410029004100230041002A0078
:100AE200410027004100380041002BFF41002C004B
:100AF20041002D00410032004100280041002E003B
:0900120075A08090002BE4F0229F
:090ED10075A001900037E4F02245
:04001E0075A0FF22A8
:040EE80075A00022CF
:1006AA00900039EFF090003AEBF0A3EAF0A3E9F0FA
:1006BA0090003DE4F0900043E4F0900039E0FFEF51
:1006CA0075F00A84AFF0900041EFF0900041E0FF2E
:1006DA00EFC3940A501C900041E0FFEF2430FF90D2
:1006EA00003DE0FE04F0743E2EF582E43400F5830A
:1006FA00EFF0900039E0FFEF75F00A84FF900039BF
:10070A00EFF0900039E0FFEF70B090003DE0FF7429
:10071A003E2FF582E43400F583E4F090003DE0FFDB
:10072A00900042EFF0900043E4F0900042E0FF9026
:10073A000043E0FEEEC39F5042900043E0FF7E007C
:10074A00900042E0FD7C00C3ED9FFFEC9EFE743DED
:10075A002FF58274003EF583E0FF90003AE0FBA398
:10076A00E0FAA3E0F9900043E0FE8E82758300EF81
:10077A001207F7900043E004F080AF90003AE0FBE4
:10078A00A3E0FAA3E0F9900042E0FF8F82758300AC
:04079A00E41207F767
:01079E002238
:10002600120EE17B017A007933A286E433FD120CCD
:100036007A7B017A007935A287E433FD120C7A9037
:100046000028E0FFEF64016012900061E4F0A37401
:1000560001F07B007DEE7F10120CF67F01120E98E8
:100066007BFD7D007F01120C2C7F011200037F01B6
:10007600120E89120932120E24120EEC7BFF7A0E32
:1000860079C3120B8C120E487B017A007933A28653
:10009600E433FD120DFF7B017A007933120CB9EFC0
:1000A600601B900022E0FFEF70139000227401F0B5
:1000B600900038E0FFEFF4FF900038EFF090005426
:1000C600E0FFEF605F900022E0FFEF605790005482
:1000D600E4F0900033E0FF900034E0FEEEB5070850
:1000E600900029E004F08005900029E4F0900029B2
:1000F600E0FFEFD39404402C900022E4F090002916
:10010600E4F0900038E0FF90002BEFF0900038E02C
:10011600FFEFF4FF900038EFF07B027A007D007F5E
:10012600EE120D337B017A007933120DCF7B017A03
:10013600007935A287E433FD120DFF7B017A007941
:1001460035120CB9EF601B900023E0FFEF7013909F
:1001560000237401F0900027E0FFEFF4FF900027E2
:10016600EFF0900054E0FFEF605F900023E0FFEFB8
:100176006057900054E4F0900035E0FF900036E0C0
:10018600FEEEB5070890002AE004F0800590002AEC
:10019600E4F090002AE0FFEFD39404402C90002373
:1001A600E4F090002AE4F0900027E0FF900037EF9B
:1001B600F0900027E0FFEFF4FF900027EFF07B02BE
:1001C6007A007D007FEE120D337B017A00793512BD
:1001D6000DCF900051E0FFEF700302008E208022C9
:1001E60090002BE0FFEFB4FF19900037E0FFEF70AF
:1001F60011900032E0FFEFC3940F50061200120276
:10020600034C208040E5A06480703A90002BE0FF0C
:10021600EF7032900037E0FFEFB4FF29900032E034
:10022600FFEFC3940F501E12001E90002D7401F0B4
:10023600900061E4F0A37464F07BA67D4C7F1012FD
:100246000CF602034CE5A064FF7053900037E0FF04
:10025600EF64FF704990002BE0FFEF70419000289B
:10026600E0FFEF6401703790002CE0FFEF6401704F
:100276002D900032E0FFEFC3940F502290002DE046
:10028600FFEFB4011930800B900032E004F0120E3B
:10029600D18003120ED1900028E4F002034CE5A0B1
:1002A6006401600302034C900037E0FFEF60030235
:1002B600034C90002BE0FFEF64FF600302034C90B9
:1002C6000032E0FFEF640F600B900032E0FFEFC3F7
:1002D600940F5072120EE8900032E0FFEF640F7038
:1002E6002E900032E0FFC3740F9FFF90002EEFF0B8
:1002F600120E2490002EE0FF7B017A00792F120661
:10030600AA7B017A00792F120B8C120E4880377B5C
:10031600017A0079327D011205A6900032E0FFC312
:10032600740F9FFF90002EEFF0120E2490002EE027
:10033600FF7B017A00792F1206AA7B017A00792FBA
:10034600120B8C120E4820812290002BE0FFEFB496
:10035600FF19900037E0FFEF7011900032E0FFEFD9
:10036600D394004006120012020467208140E5A0E3
:100376006480703A90002BE0FFEF7032900037E017
:10038600FFEFB4FF29900032E0FFEFD39400401E48
:1003960012001E90002D7402F0900061E4F0A37428
:1003A60064F07BA67D4C7F10120CF6020467E5A074
:1003B60064FF7048900037E0FFEF64FF703E9000E6
:1003C6002BE0FFEF703690002CE0FFEF6401702CFD
:1003D600900032E0FFEFD39400402190002DE0FF23
:1003E600EFB4021830810B900032E014F0120ED1F7
:1003F6008003120ED1900028E4F08065E5A0640128
:10040600705F900037E0FFEF705790002BE0FFEF32
:1004160064FF704D900032E0FFEF600B900032E019
:10042600FFEFD39400403A120EE87B017A0079324E
:100436007D011205A6900032E0FFC3740F9FFF9066
:10044600002EEFF0120E2490002EE0FF7B017A00C2
:10045600792F1206AA7B017A00792F120B8C120EC5
:1004660048900032E0FFEF640F600302008E120E28
:10047600247B007A00790F120B8C120E4802008E34
:010486002253
:080B020041004A0041004C00D3
:100E6A0090004774AAF090004874AAF09000497460
:0F0E7A0002F090004574FBF090004674BFF02228
:100D6C00900081EBF0A3EAF0A3E9F0900081E0FBA6
:100D7C00A3E0FAA3E0F9900007EBF0A3EAF0A3E9F3
:100D8C00F0900007E0FBA3E0FAA3E0F912079FFF45
:030D9C008F99220A
:1005A600900057EBF0A3EAF0A3E9F090005AEDF0C3
:1005B60090005BE4F090005CE4F090005DE4F09065
:1005C600005BE4F090005AE0FF90005BE0FEEEC3B3
:1005D6009F4003020663900057E0FBA3E0FAA3E006
:1005E600F990005BE0FF8F827583001207B8FFEF7A
:1005F600602C900057E0FBA3E0FAA3E0F990005BC3
:10060600E0FF8F827583001207B8FF90005BE0FE63
:1006160074202EF582E43400F583EFF080369000E6
:100626005BE0FFEF04FF90005DEFF090005CE0FF01
:1006360090005DE0FEC3EE9FFF90005CE0FE741F3D
:100646002EF582E43400F583EFF090005DE0FF9034
:10065600005CEFF090005BE004F00205CA90005BDE
:10066600E0FFEF04FF90005DEFF090005CE0FF908C
:10067600005DE0FEC3EE9FFF90005CE0FE741F2E5F
:10068600F582E43400F583EFF090005BE0FF742020
:100696002FF582E43400F583E4F07B017A00791FBC
:0306A600120D6CC6
:0106A900222E
:0F0B0A0044000301000B00410001004100000006
:100C2C00900084EFF0900085EDF0900086EBF0538F
:100C3C008FFE53873F900084E0FFEF5401FFEFC419
:100C4C003333335480FFEF42875398CF439840435C
:100C5C009810900085E0FFEF5401FFEF25E0FFEFC7
:0E0C6C00441CFFEF429B900086E0FF8F9A220F
:0F000300900089EFF0900089E0FFEF1392AC229C
:0F0E890090008AEFF090008AE0FFEF1392AF2203
:030023000204874D
:10048700C0E0C0F0C083C082C0D075D000C000C03B
:1004970001C002C003C004C005C006C00730997080
:1004A700C299900008E475F00112086E900001E00F
:1004B70004F0900007E0FBA3E0FAA3E0F912079F1E
:1004C700FFEF601B900000E0FFEF7013900007E064
:1004D700FBA3E0FAA3E0F912079FFF8F9980319001
:1004E7000000E0FFEF7029900007E0FBA3E0FAA30C
:1004F700E0F912079FFFEF7017900007E0FBA3E0FA
:10050700FAA3E0F912079FFF8F999000007401F09A
:10051700309871C298900002E599F0900002E0FFD0
:10052700900003E0FBA3E0FAA3E0F9900006E0FEE9
:100537008E82758300EF1207F7900006E0FF7E00BA
:10054700EF2401FFEE3400FE7C007D14120819AF82
:1005570005900006EFF0900002E0FFEF7026120E04
:100567006A900003E0FBA3E0FAA3E0F9900006E03D
:10057700FF8F82758300E41207F7900006E4F0907E
:100587000000E4F0D007D006D005D004D003D00295
:0F059700D001D000D0D0D082D083D0F0D0E032CD
:100B190042004F000041005100410054004100557E
:050B2900004100560030
:100CF60090005EEFF090005FEDF0900060EBF090FA
:100D0600005FE0FF900060E0FD900061E0FAA3E084
:100D1600FB120B2F90005EE0FFEF428990005FE030
:0D0D2600FF8F8D900060E0FF8F8BD2AB221D
:100B2F00900073EFF0900074EDF0900075EAF0A371
:100B3F00EBF0900073E0FF900055EFF0900074E041
:100B4F00FF900056EFF0900075E0FEA3E0FF9000DD
:100B5F0052EEF0A3EFF0900052E0FEA3E0FFEF643F
:100B6F00644E7018900073E0FFEFB44C0F90007458
:0D0B7F00E0FFEFB4A6069000287401F022FC
:100D3300900077EFF0900078EDF0900079EAF0A35F
:100D4300EBF0900079E0FEA3E0FF900052EEF0A3F9
:100D5300EFF0900077E0FF8F8D900078E0FF8F8BAE
:090D630090004FE4F0A3E4F0223B
:030EEC00D28E2281
:030EEF00C28E228E
:0F0E980090008BEFF090008BE0FFEF1392AF22F2
:03001B0002088454
:10088400C0E0C083C082C0D075D000C004C005C021
:1008940006C007120EEF900055E0FF8F8D900056B2
:1008A400E0FF8F8B900050E004F0700690004FE062
:1008B40004F0900028E0FFEFB4012E900052E0FE17
:1008C400A3E0FF90004FE0FCA3E0FDEDB50745EC8D
:1008D400B5064190004FE4F0A3E4F0900051740198
:1008E400F090002C7401F0802B900052E0FEA3E005
:1008F400FF90004FE0FCA3E0FDEDB50717ECB50653
:100904001390004FE4F0A3E4F09000517401F090D0
:10091400002CE4F09000547401F0120EECD007D0D7
:0E09240006D005D004D0D0D082D083D0E032EF
:030000000209D220
:0C09D200787FE4F6D8FD758120020A1938
:10079F00BB010689828A83E0225002E722BBFE0258
:0907AF00E32289828A83E493228B
:1007B800BB010CE58229F582E5833AF583E02250F6
:1007C80006E92582F8E622BBFE06E92582F8E22240
:0D07D800E58229F582E5833AF583E493225A
:1007E500BB010689828A83F0225002F722BBFE01F3
:0207F500F322ED
:1007F700F8BB010DE58229F582E5833AF583E8F038
:10080700225006E92582C8F622BBFE05E92582C8E3
:02081700F222CB
:10081900BC000BBE0029EF8DF084FFADF022E4CCC3
:10082900F875F008EF2FFFEE33FEEC33FCEE9DEC8C
:10083900984005FCEE9DFE0FD5F0E9E4CEFD22EDD2
:10084900F8F5F0EE8420D21CFEADF075F008EF2F1C
:10085900FFED33FD4007985006D5F0F222C398FD0D
:050869000FD5F0EA22AA
:10086E00C5F0F8A3E028F0C5F0F8E5821582700215
:06087E001583E038F022B2
:1009DE00020026E493A3F8E493A34003F68001F209
:1009EE0008DFF48029E493A3F85407240CC8C3331A
:1009FE00C4540F4420C8834004F456800146F6DFE9
:100A0E00E4800B0102040810204080900AD2E47E9C
:100A1E00019360BCA3FF543F30E509541FFEE493DD
:100A2E00A360010ECF54C025E060A840B8E493A3A4
:100A3E00FAE493A3F8E493A3C8C582C8CAC583CACF
:100A4E00F0A3C8C582C8CAC583CADFE9DEE780BE87
:010B2E0000C6
:00000001FF
